{
  "contractName": "SupplyChain",
  "abi": [
    {
      "inputs": [],
      "stateMutability": "payable",
      "type": "constructor"
    },
    {
      "anonymous": false,
      "inputs": [
        {
          "indexed": true,
          "internalType": "address",
          "name": "account",
          "type": "address"
        }
      ],
      "name": "FarmerAdded",
      "type": "event"
    },
    {
      "anonymous": false,
      "inputs": [
        {
          "indexed": true,
          "internalType": "address",
          "name": "account",
          "type": "address"
        }
      ],
      "name": "FarmerRemoved",
      "type": "event"
    },
    {
      "anonymous": false,
      "inputs": [
        {
          "indexed": false,
          "internalType": "uint256",
          "name": "upc",
          "type": "uint256"
        }
      ],
      "name": "ForSale",
      "type": "event"
    },
    {
      "anonymous": false,
      "inputs": [
        {
          "indexed": false,
          "internalType": "uint256",
          "name": "upc",
          "type": "uint256"
        }
      ],
      "name": "Harvested",
      "type": "event"
    },
    {
      "anonymous": false,
      "inputs": [
        {
          "indexed": false,
          "internalType": "uint256",
          "name": "upc",
          "type": "uint256"
        }
      ],
      "name": "Packed",
      "type": "event"
    },
    {
      "anonymous": false,
      "inputs": [
        {
          "indexed": false,
          "internalType": "uint256",
          "name": "upc",
          "type": "uint256"
        }
      ],
      "name": "Processed",
      "type": "event"
    },
    {
      "anonymous": false,
      "inputs": [
        {
          "indexed": false,
          "internalType": "uint256",
          "name": "upc",
          "type": "uint256"
        }
      ],
      "name": "Purchased",
      "type": "event"
    },
    {
      "anonymous": false,
      "inputs": [
        {
          "indexed": false,
          "internalType": "uint256",
          "name": "upc",
          "type": "uint256"
        }
      ],
      "name": "Received",
      "type": "event"
    },
    {
      "anonymous": false,
      "inputs": [
        {
          "indexed": false,
          "internalType": "uint256",
          "name": "upc",
          "type": "uint256"
        }
      ],
      "name": "Shipped",
      "type": "event"
    },
    {
      "anonymous": false,
      "inputs": [
        {
          "indexed": false,
          "internalType": "uint256",
          "name": "upc",
          "type": "uint256"
        }
      ],
      "name": "Sold",
      "type": "event"
    },
    {
      "inputs": [
        {
          "internalType": "address",
          "name": "account",
          "type": "address"
        }
      ],
      "name": "addFarmer",
      "outputs": [],
      "stateMutability": "nonpayable",
      "type": "function"
    },
    {
      "inputs": [
        {
          "internalType": "address",
          "name": "account",
          "type": "address"
        }
      ],
      "name": "isFarmer",
      "outputs": [
        {
          "internalType": "bool",
          "name": "",
          "type": "bool"
        }
      ],
      "stateMutability": "view",
      "type": "function"
    },
    {
      "inputs": [],
      "name": "renounceFarmer",
      "outputs": [],
      "stateMutability": "nonpayable",
      "type": "function"
    },
    {
      "inputs": [],
      "name": "kill",
      "outputs": [],
      "stateMutability": "nonpayable",
      "type": "function"
    },
    {
      "inputs": [
        {
          "internalType": "uint256",
          "name": "_upc",
          "type": "uint256"
        },
        {
          "internalType": "address",
          "name": "_originFarmerID",
          "type": "address"
        },
        {
          "internalType": "string",
          "name": "_originFarmName",
          "type": "string"
        },
        {
          "internalType": "string",
          "name": "_originFarmInformation",
          "type": "string"
        },
        {
          "internalType": "string",
          "name": "_originFarmLatitude",
          "type": "string"
        },
        {
          "internalType": "string",
          "name": "_originFarmLongitude",
          "type": "string"
        },
        {
          "internalType": "string",
          "name": "_productNotes",
          "type": "string"
        }
      ],
      "name": "harvestItem",
      "outputs": [],
      "stateMutability": "nonpayable",
      "type": "function"
    },
    {
      "inputs": [
        {
          "internalType": "uint256",
          "name": "_upc",
          "type": "uint256"
        }
      ],
      "name": "processItem",
      "outputs": [],
      "stateMutability": "nonpayable",
      "type": "function"
    },
    {
      "inputs": [
        {
          "internalType": "uint256",
          "name": "_upc",
          "type": "uint256"
        }
      ],
      "name": "packItem",
      "outputs": [],
      "stateMutability": "nonpayable",
      "type": "function"
    },
    {
      "inputs": [
        {
          "internalType": "uint256",
          "name": "_upc",
          "type": "uint256"
        },
        {
          "internalType": "uint256",
          "name": "_price",
          "type": "uint256"
        }
      ],
      "name": "sellItem",
      "outputs": [],
      "stateMutability": "nonpayable",
      "type": "function"
    },
    {
      "inputs": [
        {
          "internalType": "uint256",
          "name": "_upc",
          "type": "uint256"
        }
      ],
      "name": "buyItem",
      "outputs": [],
      "stateMutability": "payable",
      "type": "function"
    },
    {
      "inputs": [
        {
          "internalType": "uint256",
          "name": "_upc",
          "type": "uint256"
        }
      ],
      "name": "shipItem",
      "outputs": [],
      "stateMutability": "nonpayable",
      "type": "function"
    },
    {
      "inputs": [
        {
          "internalType": "uint256",
          "name": "_upc",
          "type": "uint256"
        }
      ],
      "name": "receiveItem",
      "outputs": [],
      "stateMutability": "nonpayable",
      "type": "function"
    },
    {
      "inputs": [
        {
          "internalType": "uint256",
          "name": "_upc",
          "type": "uint256"
        }
      ],
      "name": "purchaseItem",
      "outputs": [],
      "stateMutability": "nonpayable",
      "type": "function"
    },
    {
      "inputs": [
        {
          "internalType": "uint256",
          "name": "_upc",
          "type": "uint256"
        }
      ],
      "name": "fetchItemBufferOne",
      "outputs": [
        {
          "internalType": "uint256",
          "name": "itemSKU",
          "type": "uint256"
        },
        {
          "internalType": "uint256",
          "name": "itemUPC",
          "type": "uint256"
        },
        {
          "internalType": "address",
          "name": "ownerID",
          "type": "address"
        },
        {
          "internalType": "address",
          "name": "originFarmerID",
          "type": "address"
        },
        {
          "internalType": "string",
          "name": "originFarmName",
          "type": "string"
        },
        {
          "internalType": "string",
          "name": "originFarmInformation",
          "type": "string"
        },
        {
          "internalType": "string",
          "name": "originFarmLatitude",
          "type": "string"
        },
        {
          "internalType": "string",
          "name": "originFarmLongitude",
          "type": "string"
        }
      ],
      "stateMutability": "view",
      "type": "function"
    },
    {
      "inputs": [
        {
          "internalType": "uint256",
          "name": "_upc",
          "type": "uint256"
        }
      ],
      "name": "fetchItemBufferTwo",
      "outputs": [
        {
          "internalType": "uint256",
          "name": "itemSKU",
          "type": "uint256"
        },
        {
          "internalType": "uint256",
          "name": "itemUPC",
          "type": "uint256"
        },
        {
          "internalType": "uint256",
          "name": "productID",
          "type": "uint256"
        },
        {
          "internalType": "string",
          "name": "productNotes",
          "type": "string"
        },
        {
          "internalType": "uint256",
          "name": "productPrice",
          "type": "uint256"
        },
        {
          "internalType": "uint256",
          "name": "itemState",
          "type": "uint256"
        },
        {
          "internalType": "address",
          "name": "distributorID",
          "type": "address"
        },
        {
          "internalType": "address",
          "name": "retailerID",
          "type": "address"
        },
        {
          "internalType": "address",
          "name": "consumerID",
          "type": "address"
        }
      ],
      "stateMutability": "view",
      "type": "function"
    }
  ],
  "bytecode": "0x608060405262000015336200006c60201b60201c565b33600160006101000a81548173ffffffffffffffffffffffffffffffffffffffff021916908373ffffffffffffffffffffffffffffffffffffffff1602179055506001600381905550600160028190555062000214565b62000087816000620000cd60201b62001e151790919060201c565b8073ffffffffffffffffffffffffffffffffffffffff167f2e0ded4123377a3c2bc9a26f1717655a129e2f20752924d42e730ec89c83dbd060405160405180910390a250565b600073ffffffffffffffffffffffffffffffffffffffff168173ffffffffffffffffffffffffffffffffffffffff16036200010757600080fd5b6200011982826200018260201b60201c565b156200012457600080fd5b60018260000160008373ffffffffffffffffffffffffffffffffffffffff1673ffffffffffffffffffffffffffffffffffffffff16815260200190815260200160002060006101000a81548160ff0219169083151502179055505050565b60008073ffffffffffffffffffffffffffffffffffffffff168273ffffffffffffffffffffffffffffffffffffffff1603620001bd57600080fd5b8260000160008373ffffffffffffffffffffffffffffffffffffffff1673ffffffffffffffffffffffffffffffffffffffff16815260200190815260200160002060009054906101000a900460ff16905092915050565b61287780620002246000396000f3fe6080604052600436106100dd5760003560e01c8063a26be9991161007f578063d38ea5bf11610059578063d38ea5bf146102a3578063e7fb74c7146102cc578063f30fc480146102e8578063f61c899a14610311576100dd565b8063a26be99914610214578063b94290691461023d578063bdd8a6a81461027a576100dd565b806366225ff9116100bb57806366225ff91461014b57806377c459131461019057806380c3f96d146101d457806380fc0ce4146101fd576100dd565b80632d923561146100e257806341c0e1b51461010b57806349dae76614610122575b600080fd5b3480156100ee57600080fd5b506101096004803603810190610104919061219c565b61033a565b005b34801561011757600080fd5b5061012061033e565b005b34801561012e57600080fd5b50610149600480360381019061014491906121dc565b6103d0565b005b34801561015757600080fd5b50610172600480360381019061016d91906121dc565b610c57565b604051610187999897969594939291906122f2565b60405180910390f35b34801561019c57600080fd5b506101b760048036038101906101b291906121dc565b610e5b565b6040516101cb989796959493929190612386565b60405180910390f35b3480156101e057600080fd5b506101fb60048036038101906101f6919061244c565b61119a565b005b34801561020957600080fd5b506102126111b8565b005b34801561022057600080fd5b5061023b600480360381019061023691906121dc565b6111c3565b005b34801561024957600080fd5b50610264600480360381019061025f919061244c565b6111c6565b6040516102719190612494565b60405180910390f35b34801561028657600080fd5b506102a1600480360381019061029c91906125e4565b6111e3565b005b3480156102af57600080fd5b506102ca60048036038101906102c591906121dc565b6115b7565b005b6102e660048036038101906102e191906121dc565b6115ba565b005b3480156102f457600080fd5b5061030f600480360381019061030a91906121dc565b6115bd565b005b34801561031d57600080fd5b50610338600480360381019061033391906121dc565b611e12565b005b5050565b600160009054906101000a900473ffffffffffffffffffffffffffffffffffffffff1673ffffffffffffffffffffffffffffffffffffffff163373ffffffffffffffffffffffffffffffffffffffff16036103ce57600160009054906101000a900473ffffffffffffffffffffffffffffffffffffffff1673ffffffffffffffffffffffffffffffffffffffff16ff5b565b80600060078111156103e5576103e4612712565b5b60046000838152602001908152602001600020600b0160009054906101000a900460ff16600781111561041b5761041a612712565b5b1461042557600080fd5b338073ffffffffffffffffffffffffffffffffffffffff163373ffffffffffffffffffffffffffffffffffffffff161461045e57600080fd5b610467336111c6565b61047057600080fd5b600060046000858152602001908152602001600020604051806101e001604052908160008201548152602001600182015481526020016002820160009054906101000a900473ffffffffffffffffffffffffffffffffffffffff1673ffffffffffffffffffffffffffffffffffffffff1673ffffffffffffffffffffffffffffffffffffffff1681526020016003820160009054906101000a900473ffffffffffffffffffffffffffffffffffffffff1673ffffffffffffffffffffffffffffffffffffffff1673ffffffffffffffffffffffffffffffffffffffff16815260200160048201805461056190612770565b80601f016020809104026020016040519081016040528092919081815260200182805461058d90612770565b80156105da5780601f106105af576101008083540402835291602001916105da565b820191906000526020600020905b8154815290600101906020018083116105bd57829003601f168201915b505050505081526020016005820180546105f390612770565b80601f016020809104026020016040519081016040528092919081815260200182805461061f90612770565b801561066c5780601f106106415761010080835404028352916020019161066c565b820191906000526020600020905b81548152906001019060200180831161064f57829003601f168201915b5050505050815260200160068201805461068590612770565b80601f01602080910402602001604051908101604052809291908181526020018280546106b190612770565b80156106fe5780601f106106d3576101008083540402835291602001916106fe565b820191906000526020600020905b8154815290600101906020018083116106e157829003601f168201915b5050505050815260200160078201805461071790612770565b80601f016020809104026020016040519081016040528092919081815260200182805461074390612770565b80156107905780601f1061076557610100808354040283529160200191610790565b820191906000526020600020905b81548152906001019060200180831161077357829003601f168201915b50505050508152602001600882015481526020016009820180546107b390612770565b80601f01602080910402602001604051908101604052809291908181526020018280546107df90612770565b801561082c5780601f106108015761010080835404028352916020019161082c565b820191906000526020600020905b81548152906001019060200180831161080f57829003601f168201915b50505050508152602001600a8201548152602001600b820160009054906101000a900460ff16600781111561086457610863612712565b5b600781111561087657610875612712565b5b8152602001600b820160019054906101000a900473ffffffffffffffffffffffffffffffffffffffff1673ffffffffffffffffffffffffffffffffffffffff1673ffffffffffffffffffffffffffffffffffffffff168152602001600c820160009054906101000a900473ffffffffffffffffffffffffffffffffffffffff1673ffffffffffffffffffffffffffffffffffffffff1673ffffffffffffffffffffffffffffffffffffffff168152602001600d820160009054906101000a900473ffffffffffffffffffffffffffffffffffffffff1673ffffffffffffffffffffffffffffffffffffffff1673ffffffffffffffffffffffffffffffffffffffff168152505090506001816101600190600781111561099857610997612712565b5b908160078111156109ac576109ab612712565b5b815250508060046000868152602001908152602001600020600082015181600001556020820151816001015560408201518160020160006101000a81548173ffffffffffffffffffffffffffffffffffffffff021916908373ffffffffffffffffffffffffffffffffffffffff16021790555060608201518160030160006101000a81548173ffffffffffffffffffffffffffffffffffffffff021916908373ffffffffffffffffffffffffffffffffffffffff1602179055506080820151816004019080519060200190610a829291906120af565b5060a0820151816005019080519060200190610a9f9291906120af565b5060c0820151816006019080519060200190610abc9291906120af565b5060e0820151816007019080519060200190610ad99291906120af565b506101008201518160080155610120820151816009019080519060200190610b029291906120af565b5061014082015181600a015561016082015181600b0160006101000a81548160ff02191690836007811115610b3a57610b39612712565b5b021790555061018082015181600b0160016101000a81548173ffffffffffffffffffffffffffffffffffffffff021916908373ffffffffffffffffffffffffffffffffffffffff1602179055506101a082015181600c0160006101000a81548173ffffffffffffffffffffffffffffffffffffffff021916908373ffffffffffffffffffffffffffffffffffffffff1602179055506101c082015181600d0160006101000a81548173ffffffffffffffffffffffffffffffffffffffff021916908373ffffffffffffffffffffffffffffffffffffffff1602179055509050507f5afe3b1bf87069693c075da5c22a98d63d1aef98a30dbbe538d0781a98b77ee584604051610c4991906127a1565b60405180910390a150505050565b600080600060606000806000806000600460008b8152602001908152602001600020600001549850600460008b8152602001908152602001600020600101549750600460008b8152602001908152602001600020600801549650600460008b81526020019081526020016000206009018054610cd290612770565b80601f0160208091040260200160405190810160405280929190818152602001828054610cfe90612770565b8015610d4b5780601f10610d2057610100808354040283529160200191610d4b565b820191906000526020600020905b815481529060010190602001808311610d2e57829003601f168201915b50505050509550600460008b8152602001908152602001600020600a01549450600460008b8152602001908152602001600020600b0160009054906101000a900460ff166007811115610da157610da0612712565b5b9350600460008b8152602001908152602001600020600b0160019054906101000a900473ffffffffffffffffffffffffffffffffffffffff169250600460008b8152602001908152602001600020600c0160009054906101000a900473ffffffffffffffffffffffffffffffffffffffff169150600460008b8152602001908152602001600020600d0160009054906101000a900473ffffffffffffffffffffffffffffffffffffffff1690509193959799909294969850565b600080600080606080606080600460008a8152602001908152602001600020600001549750600460008a8152602001908152602001600020600101549650600460008a815260200190815260200160002060020160009054906101000a900473ffffffffffffffffffffffffffffffffffffffff169550600460008a815260200190815260200160002060030160009054906101000a900473ffffffffffffffffffffffffffffffffffffffff169450600460008a81526020019081526020016000206004018054610f2c90612770565b80601f0160208091040260200160405190810160405280929190818152602001828054610f5890612770565b8015610fa55780601f10610f7a57610100808354040283529160200191610fa5565b820191906000526020600020905b815481529060010190602001808311610f8857829003601f168201915b50505050509350600460008a81526020019081526020016000206005018054610fcd90612770565b80601f0160208091040260200160405190810160405280929190818152602001828054610ff990612770565b80156110465780601f1061101b57610100808354040283529160200191611046565b820191906000526020600020905b81548152906001019060200180831161102957829003601f168201915b50505050509250600460008a8152602001908152602001600020600601805461106e90612770565b80601f016020809104026020016040519081016040528092919081815260200182805461109a90612770565b80156110e75780601f106110bc576101008083540402835291602001916110e7565b820191906000526020600020905b8154815290600101906020018083116110ca57829003601f168201915b50505050509150600460008a8152602001908152602001600020600701805461110f90612770565b80601f016020809104026020016040519081016040528092919081815260200182805461113b90612770565b80156111885780601f1061115d57610100808354040283529160200191611188565b820191906000526020600020905b81548152906001019060200180831161116b57829003601f168201915b50505050509050919395975091939597565b6111a3336111c6565b6111ac57600080fd5b6111b581611ec0565b50565b6111c133611f1a565b565b50565b60006111dc826000611f7490919063ffffffff16565b9050919050565b6111ec336111c6565b6111f557600080fd5b6000604051806101e0016040528060035481526020018981526020018873ffffffffffffffffffffffffffffffffffffffff1681526020018873ffffffffffffffffffffffffffffffffffffffff16815260200187815260200186815260200185815260200184815260200160035460025461127191906127eb565b8152602001838152602001600081526020016000600781111561129757611296612712565b5b8152602001600073ffffffffffffffffffffffffffffffffffffffff168152602001600073ffffffffffffffffffffffffffffffffffffffff168152602001600073ffffffffffffffffffffffffffffffffffffffff16815250905080600460006002548152602001908152602001600020600082015181600001556020820151816001015560408201518160020160006101000a81548173ffffffffffffffffffffffffffffffffffffffff021916908373ffffffffffffffffffffffffffffffffffffffff16021790555060608201518160030160006101000a81548173ffffffffffffffffffffffffffffffffffffffff021916908373ffffffffffffffffffffffffffffffffffffffff16021790555060808201518160040190805190602001906113c79291906120af565b5060a08201518160050190805190602001906113e49291906120af565b5060c08201518160060190805190602001906114019291906120af565b5060e082015181600701908051906020019061141e9291906120af565b5061010082015181600801556101208201518160090190805190602001906114479291906120af565b5061014082015181600a015561016082015181600b0160006101000a81548160ff0219169083600781111561147f5761147e612712565b5b021790555061018082015181600b0160016101000a81548173ffffffffffffffffffffffffffffffffffffffff021916908373ffffffffffffffffffffffffffffffffffffffff1602179055506101a082015181600c0160006101000a81548173ffffffffffffffffffffffffffffffffffffffff021916908373ffffffffffffffffffffffffffffffffffffffff1602179055506101c082015181600d0160006101000a81548173ffffffffffffffffffffffffffffffffffffffff021916908373ffffffffffffffffffffffffffffffffffffffff160217905550905050600160035461156e91906127eb565b6003819055507f8e55ccfc9778ff8eba1646d765cf1982537ce0f9257054a17b48aad7452501836002546040516115a591906127a1565b60405180910390a15050505050505050565b50565b50565b80600160009054906101000a900473ffffffffffffffffffffffffffffffffffffffff168073ffffffffffffffffffffffffffffffffffffffff163373ffffffffffffffffffffffffffffffffffffffff161461161957600080fd5b611622336111c6565b61162b57600080fd5b600060046000858152602001908152602001600020604051806101e001604052908160008201548152602001600182015481526020016002820160009054906101000a900473ffffffffffffffffffffffffffffffffffffffff1673ffffffffffffffffffffffffffffffffffffffff1673ffffffffffffffffffffffffffffffffffffffff1681526020016003820160009054906101000a900473ffffffffffffffffffffffffffffffffffffffff1673ffffffffffffffffffffffffffffffffffffffff1673ffffffffffffffffffffffffffffffffffffffff16815260200160048201805461171c90612770565b80601f016020809104026020016040519081016040528092919081815260200182805461174890612770565b80156117955780601f1061176a57610100808354040283529160200191611795565b820191906000526020600020905b81548152906001019060200180831161177857829003601f168201915b505050505081526020016005820180546117ae90612770565b80601f01602080910402602001604051908101604052809291908181526020018280546117da90612770565b80156118275780601f106117fc57610100808354040283529160200191611827565b820191906000526020600020905b81548152906001019060200180831161180a57829003601f168201915b5050505050815260200160068201805461184090612770565b80601f016020809104026020016040519081016040528092919081815260200182805461186c90612770565b80156118b95780601f1061188e576101008083540402835291602001916118b9565b820191906000526020600020905b81548152906001019060200180831161189c57829003601f168201915b505050505081526020016007820180546118d290612770565b80601f01602080910402602001604051908101604052809291908181526020018280546118fe90612770565b801561194b5780601f106119205761010080835404028352916020019161194b565b820191906000526020600020905b81548152906001019060200180831161192e57829003601f168201915b505050505081526020016008820154815260200160098201805461196e90612770565b80601f016020809104026020016040519081016040528092919081815260200182805461199a90612770565b80156119e75780601f106119bc576101008083540402835291602001916119e7565b820191906000526020600020905b8154815290600101906020018083116119ca57829003601f168201915b50505050508152602001600a8201548152602001600b820160009054906101000a900460ff166007811115611a1f57611a1e612712565b5b6007811115611a3157611a30612712565b5b8152602001600b820160019054906101000a900473ffffffffffffffffffffffffffffffffffffffff1673ffffffffffffffffffffffffffffffffffffffff1673ffffffffffffffffffffffffffffffffffffffff168152602001600c820160009054906101000a900473ffffffffffffffffffffffffffffffffffffffff1673ffffffffffffffffffffffffffffffffffffffff1673ffffffffffffffffffffffffffffffffffffffff168152602001600d820160009054906101000a900473ffffffffffffffffffffffffffffffffffffffff1673ffffffffffffffffffffffffffffffffffffffff1673ffffffffffffffffffffffffffffffffffffffff1681525050905060028161016001906007811115611b5357611b52612712565b5b90816007811115611b6757611b66612712565b5b815250508060046000868152602001908152602001600020600082015181600001556020820151816001015560408201518160020160006101000a81548173ffffffffffffffffffffffffffffffffffffffff021916908373ffffffffffffffffffffffffffffffffffffffff16021790555060608201518160030160006101000a81548173ffffffffffffffffffffffffffffffffffffffff021916908373ffffffffffffffffffffffffffffffffffffffff1602179055506080820151816004019080519060200190611c3d9291906120af565b5060a0820151816005019080519060200190611c5a9291906120af565b5060c0820151816006019080519060200190611c779291906120af565b5060e0820151816007019080519060200190611c949291906120af565b506101008201518160080155610120820151816009019080519060200190611cbd9291906120af565b5061014082015181600a015561016082015181600b0160006101000a81548160ff02191690836007811115611cf557611cf4612712565b5b021790555061018082015181600b0160016101000a81548173ffffffffffffffffffffffffffffffffffffffff021916908373ffffffffffffffffffffffffffffffffffffffff1602179055506101a082015181600c0160006101000a81548173ffffffffffffffffffffffffffffffffffffffff021916908373ffffffffffffffffffffffffffffffffffffffff1602179055506101c082015181600d0160006101000a81548173ffffffffffffffffffffffffffffffffffffffff021916908373ffffffffffffffffffffffffffffffffffffffff1602179055509050507f9b3b66e2380b690bae22c73ef1428fb0c91e72fe14a4b6defa13035214187aff84604051611e0491906127a1565b60405180910390a150505050565b50565b600073ffffffffffffffffffffffffffffffffffffffff168173ffffffffffffffffffffffffffffffffffffffff1603611e4e57600080fd5b611e588282611f74565b15611e6257600080fd5b60018260000160008373ffffffffffffffffffffffffffffffffffffffff1673ffffffffffffffffffffffffffffffffffffffff16815260200190815260200160002060006101000a81548160ff0219169083151502179055505050565b611ed4816000611e1590919063ffffffff16565b8073ffffffffffffffffffffffffffffffffffffffff167f2e0ded4123377a3c2bc9a26f1717655a129e2f20752924d42e730ec89c83dbd060405160405180910390a250565b611f2e81600061200590919063ffffffff16565b8073ffffffffffffffffffffffffffffffffffffffff167fa5e0f060af304ab17dd418c7927e3da3ae7868189bf387aee09ab179ccc572f260405160405180910390a250565b60008073ffffffffffffffffffffffffffffffffffffffff168273ffffffffffffffffffffffffffffffffffffffff1603611fae57600080fd5b8260000160008373ffffffffffffffffffffffffffffffffffffffff1673ffffffffffffffffffffffffffffffffffffffff16815260200190815260200160002060009054906101000a900460ff16905092915050565b600073ffffffffffffffffffffffffffffffffffffffff168173ffffffffffffffffffffffffffffffffffffffff160361203e57600080fd5b6120488282611f74565b61205157600080fd5b60008260000160008373ffffffffffffffffffffffffffffffffffffffff1673ffffffffffffffffffffffffffffffffffffffff16815260200190815260200160002060006101000a81548160ff0219169083151502179055505050565b8280546120bb90612770565b90600052602060002090601f0160209004810192826120dd5760008555612124565b82601f106120f657805160ff1916838001178555612124565b82800160010185558215612124579182015b82811115612123578251825591602001919060010190612108565b5b5090506121319190612135565b5090565b5b8082111561214e576000816000905550600101612136565b5090565b6000604051905090565b600080fd5b600080fd5b6000819050919050565b61217981612166565b811461218457600080fd5b50565b60008135905061219681612170565b92915050565b600080604083850312156121b3576121b261215c565b5b60006121c185828601612187565b92505060206121d285828601612187565b9150509250929050565b6000602082840312156121f2576121f161215c565b5b600061220084828501612187565b91505092915050565b61221281612166565b82525050565b600081519050919050565b600082825260208201905092915050565b60005b83811015612252578082015181840152602081019050612237565b83811115612261576000848401525b50505050565b6000601f19601f8301169050919050565b600061228382612218565b61228d8185612223565b935061229d818560208601612234565b6122a681612267565b840191505092915050565b600073ffffffffffffffffffffffffffffffffffffffff82169050919050565b60006122dc826122b1565b9050919050565b6122ec816122d1565b82525050565b600061012082019050612308600083018c612209565b612315602083018b612209565b612322604083018a612209565b81810360608301526123348189612278565b90506123436080830188612209565b61235060a0830187612209565b61235d60c08301866122e3565b61236a60e08301856122e3565b6123786101008301846122e3565b9a9950505050505050505050565b60006101008201905061239c600083018b612209565b6123a9602083018a612209565b6123b660408301896122e3565b6123c360608301886122e3565b81810360808301526123d58187612278565b905081810360a08301526123e98186612278565b905081810360c08301526123fd8185612278565b905081810360e08301526124118184612278565b90509998505050505050505050565b612429816122d1565b811461243457600080fd5b50565b60008135905061244681612420565b92915050565b6000602082840312156124625761246161215c565b5b600061247084828501612437565b91505092915050565b60008115159050919050565b61248e81612479565b82525050565b60006020820190506124a96000830184612485565b92915050565b600080fd5b600080fd5b7f4e487b7100000000000000000000000000000000000000000000000000000000600052604160045260246000fd5b6124f182612267565b810181811067ffffffffffffffff821117156125105761250f6124b9565b5b80604052505050565b6000612523612152565b905061252f82826124e8565b919050565b600067ffffffffffffffff82111561254f5761254e6124b9565b5b61255882612267565b9050602081019050919050565b82818337600083830152505050565b600061258761258284612534565b612519565b9050828152602081018484840111156125a3576125a26124b4565b5b6125ae848285612565565b509392505050565b600082601f8301126125cb576125ca6124af565b5b81356125db848260208601612574565b91505092915050565b600080600080600080600060e0888a0312156126035761260261215c565b5b60006126118a828b01612187565b97505060206126228a828b01612437565b965050604088013567ffffffffffffffff81111561264357612642612161565b5b61264f8a828b016125b6565b955050606088013567ffffffffffffffff8111156126705761266f612161565b5b61267c8a828b016125b6565b945050608088013567ffffffffffffffff81111561269d5761269c612161565b5b6126a98a828b016125b6565b93505060a088013567ffffffffffffffff8111156126ca576126c9612161565b5b6126d68a828b016125b6565b92505060c088013567ffffffffffffffff8111156126f7576126f6612161565b5b6127038a828b016125b6565b91505092959891949750929550565b7f4e487b7100000000000000000000000000000000000000000000000000000000600052602160045260246000fd5b7f4e487b7100000000000000000000000000000000000000000000000000000000600052602260045260246000fd5b6000600282049050600182168061278857607f821691505b60208210810361279b5761279a612741565b5b50919050565b60006020820190506127b66000830184612209565b92915050565b7f4e487b7100000000000000000000000000000000000000000000000000000000600052601160045260246000fd5b60006127f682612166565b915061280183612166565b9250827fffffffffffffffffffffffffffffffffffffffffffffffffffffffffffffffff03821115612836576128356127bc565b5b82820190509291505056fea2646970667358221220920c93b258deb83ca31ec69d66a9bd6fd99eb6e9df08623990d28752dd9c733e64736f6c634300080e0033",
  "immutableReferences": {},
  "source": "pragma solidity ^0.8;\n\nimport '../coffeeaccesscontrol/FarmerRole.sol';\n\n// Define a contract 'Supplychain'\ncontract SupplyChain is FarmerRole {\n    // Define 'owner'\n    address owner;\n\n    // Define a variable called 'upc' for Universal Product Code (UPC)\n    uint256 upc;\n\n    // Define a variable called 'sku' for Stock Keeping Unit (SKU)\n    uint256 sku;\n\n    // Define a public mapping 'items' that maps the UPC to an Item.\n    mapping(uint256 => Item) items;\n\n    // Define a public mapping 'itemsHistory' that maps the UPC to an array of TxHash,\n    // that track its journey through the supply chain -- to be sent from DApp.\n    mapping(uint256 => string[]) itemsHistory;\n\n    // Define enum 'State' with the following values:\n    enum State {\n        Harvested, // 0\n        Processed, // 1\n        Packed, // 2\n        ForSale, // 3\n        Sold, // 4\n        Shipped, // 5\n        Received, // 6\n        Purchased // 7\n    }\n\n    State constant defaultState = State.Harvested;\n\n    // Define a struct 'Item' with the following fields:\n    struct Item {\n        uint256 sku; // Stock Keeping Unit (SKU)\n        uint256 upc; // Universal Product Code (UPC), generated by the Farmer, goes on the package, can be verified by the Consumer\n        address ownerID; // Metamask-Ethereum address of the current owner as the product moves through 8 stages\n        address originFarmerID; // Metamask-Ethereum address of the Farmer\n        string originFarmName; // Farmer Name\n        string originFarmInformation; // Farmer Information\n        string originFarmLatitude; // Farm Latitude\n        string originFarmLongitude; // Farm Longitude\n        uint256 productID; // Product ID potentially a combination of upc + sku\n        string productNotes; // Product Notes\n        uint256 productPrice; // Product Price\n        State itemState; // Product State as represented in the enum above\n        address distributorID; // Metamask-Ethereum address of the Distributor\n        address retailerID; // Metamask-Ethereum address of the Retailer\n        address payable consumerID; // Metamask-Ethereum address of the Consumer\n    }\n\n    // Define 8 events with the same 8 state values and accept 'upc' as input argument\n    event Harvested(uint256 upc);\n    event Processed(uint256 upc);\n    event Packed(uint256 upc);\n    event ForSale(uint256 upc);\n    event Sold(uint256 upc);\n    event Shipped(uint256 upc);\n    event Received(uint256 upc);\n    event Purchased(uint256 upc);\n\n    // Define a modifer that checks to see if msg.sender == owner of the contract\n    modifier onlyOwner() {\n        require(msg.sender == owner);\n        _;\n    }\n\n    // Define a modifer that verifies the Caller\n    modifier verifyCaller(address _address) {\n        require(msg.sender == _address);\n        _;\n    }\n\n    // Define a modifier that checks if the paid amount is sufficient to cover the price\n    modifier paidEnough(uint256 _price) {\n        require(msg.value >= _price);\n        _;\n    }\n\n    // Define a modifier that checks the price and refunds the remaining balance\n    modifier checkValue(uint256 _upc) {\n        _;\n        uint256 _price = items[_upc].productPrice;\n        uint256 amountToReturn = msg.value - _price;\n        items[_upc].consumerID.transfer(amountToReturn);\n    }\n\n    // Define a modifier that checks if an item.state of a upc is Harvested\n    modifier harvested(uint256 _upc) {\n        require(items[_upc].itemState == State.Harvested);\n        _;\n    }\n\n    // Define a modifier that checks if an item.state of a upc is Processed\n    modifier processed(uint256 _upc) {\n        _;\n    }\n\n    // Define a modifier that checks if an item.state of a upc is Packed\n    modifier packed(uint256 _upc) {\n        require(items[_upc].itemState == State.Packed);\n        _;\n    }\n\n    // Define a modifier that checks if an item.state of a upc is ForSale\n    modifier forSale(uint256 _upc) {\n        _;\n    }\n\n    // Define a modifier that checks if an item.state of a upc is Sold\n    modifier sold(uint256 _upc) {\n        _;\n    }\n\n    // Define a modifier that checks if an item.state of a upc is Shipped\n    modifier shipped(uint256 _upc) {\n        _;\n    }\n\n    // Define a modifier that checks if an item.state of a upc is Received\n    modifier received(uint256 _upc) {\n        _;\n    }\n\n    // Define a modifier that checks if an item.state of a upc is Purchased\n    modifier purchased(uint256 _upc) {\n        _;\n    }\n\n    // In the constructor set 'owner' to the address that instantiated the contract\n    // and set 'sku' to 1\n    // and set 'upc' to 1\n    constructor() payable {\n        owner = msg.sender;\n        sku = 1;\n        upc = 1;\n    }\n\n    // Define a function 'kill' if required\n    function kill() public {\n        if (msg.sender == owner) {\n            selfdestruct(payable(owner));\n        }\n    }\n\n    // Define a function 'harvestItem' that allows a farmer to mark an item 'Harvested'\n    function harvestItem(\n        uint256 _upc,\n        address _originFarmerID,\n        string memory _originFarmName,\n        string memory _originFarmInformation,\n        string memory _originFarmLatitude,\n        string memory _originFarmLongitude,\n        string memory _productNotes\n    ) public onlyFarmer {\n        // Add the new item as part of Harvest\n\n        Item memory item = Item({\n          sku: sku,\n          upc: _upc,\n          ownerID: _originFarmerID,\n          originFarmerID: _originFarmerID,\n          originFarmName: _originFarmName,\n          originFarmInformation: _originFarmInformation,\n          originFarmLatitude: _originFarmLatitude,\n          originFarmLongitude: _originFarmLongitude,\n          productID: upc + sku,\n          productNotes: _productNotes,\n          productPrice: 0,\n          itemState: State.Harvested,\n          distributorID: payable(address(0)),\n          retailerID: payable(address(0)),\n          consumerID: payable(address(0))\n        });\n\n        items[upc] = item;\n        // Increment sku\n        sku = sku + 1;\n        // Emit the appropriate event\n        emit Harvested(upc);\n    }\n\n    // Define a function 'processtItem' that allows a farmer to mark an item 'Processed'\n    function processItem(uint256 _upc) public harvested(_upc) verifyCaller(msg.sender) onlyFarmer\n    {\n\n      Item memory currentItem = items[_upc];\n\n      currentItem.itemState = State.Processed;\n\n      items[_upc] = currentItem;\n\n      emit Processed(_upc);\n    }\n\n    // Define a function 'packItem' that allows a farmer to mark an item 'Packed'\n    function packItem(uint256 _upc) public processed(_upc) verifyCaller(owner) onlyFarmer\n    // Call modifier to check if upc has passed previous supply chain stage\n\n    // Call modifier to verify caller of this function\n\n    {\n      Item memory currentItem = items[_upc];\n      currentItem.itemState = State.Packed;\n      items[_upc] = currentItem;\n      emit Packed(_upc);\n    }\n\n    // Define a function 'sellItem' that allows a farmer to mark an item 'ForSale'\n    function sellItem(uint256 _upc, uint256 _price)\n        public\n    // Call modifier to check if upc has passed previous supply chain stage\n\n    // Call modifier to verify caller of this function\n\n    {\n        // Update the appropriate fields\n        // Emit the appropriate event\n    }\n\n    // Define a function 'buyItem' that allows the disributor to mark an item 'Sold'\n    // Use the above defined modifiers to check if the item is available for sale, if the buyer has paid enough,\n    // and any excess ether sent is refunded back to the buyer\n    function buyItem(uint256 _upc)\n        public\n        payable\n    // Call modifier to check if upc has passed previous supply chain stage\n\n    // Call modifer to check if buyer has paid enough\n\n    // Call modifer to send any excess ether back to buyer\n\n    {\n        // Update the appropriate fields - ownerID, distributorID, itemState\n        // Transfer money to farmer\n        // emit the appropriate event\n    }\n\n    // Define a function 'shipItem' that allows the distributor to mark an item 'Shipped'\n    // Use the above modifers to check if the item is sold\n    // Call modifier to check if upc has passed previous supply chain stage\n    // Call modifier to verify caller of this function\n    function shipItem(uint256 _upc) public {\n        // Update the appropriate fields\n        // Emit the appropriate event\n    }\n\n    // Define a function 'receiveItem' that allows the retailer to mark an item 'Received'\n    // Use the above modifiers to check if the item is shipped\n    function receiveItem(uint256 _upc)\n        public\n    // Call modifier to check if upc has passed previous supply chain stage\n\n    // Access Control List enforced by calling Smart Contract / DApp\n    {\n        // Update the appropriate fields - ownerID, retailerID, itemState\n        // Emit the appropriate event\n    }\n\n    // Define a function 'purchaseItem' that allows the consumer to mark an item 'Purchased'\n    // Use the above modifiers to check if the item is received\n    function purchaseItem(uint256 _upc)\n        public\n    // Call modifier to check if upc has passed previous supply chain stage\n\n    // Access Control List enforced by calling Smart Contract / DApp\n    {\n        // Update the appropriate fields - ownerID, consumerID, itemState\n        // Emit the appropriate event\n    }\n\n    // Define a function 'fetchItemBufferOne' that fetches the data\n    function fetchItemBufferOne(uint256 _upc)\n        public\n        view\n        returns (\n            uint256 itemSKU,\n            uint256 itemUPC,\n            address ownerID,\n            address originFarmerID,\n            string memory originFarmName,\n            string memory originFarmInformation,\n            string memory originFarmLatitude,\n            string memory originFarmLongitude\n        )\n    {\n\n        // Assign values to the 8 parameters\n          itemSKU = items[_upc].sku;\n          itemUPC = items[_upc].upc;\n          ownerID = items[_upc].ownerID;\n          originFarmerID = items[_upc].originFarmerID;\n          originFarmName = items[_upc].originFarmName;\n          originFarmInformation = items[_upc].originFarmInformation;\n          originFarmLatitude = items[_upc].originFarmLatitude;\n          originFarmLongitude = items[_upc].originFarmLongitude;\n\n        return (\n            itemSKU,\n            itemUPC,\n            ownerID,\n            originFarmerID,\n            originFarmName,\n            originFarmInformation,\n            originFarmLatitude,\n            originFarmLongitude\n        );\n    }\n\n    // Define a function 'fetchItemBufferTwo' that fetches the data\n    function fetchItemBufferTwo(uint256 _upc)\n        public\n        view\n        returns (\n            uint256 itemSKU,\n            uint256 itemUPC,\n            uint256 productID,\n            string memory productNotes,\n            uint256 productPrice,\n            uint256 itemState,\n            address distributorID,\n            address retailerID,\n            address consumerID\n        )\n    {\n        // Assign values to the 9 parameters\n          itemSKU = items[_upc].sku;\n          itemUPC = items[_upc].upc;\n          productID = items[_upc].productID;\n          productNotes = items[_upc].productNotes;\n          productPrice = items[_upc].productPrice;\n          itemState = uint(items[_upc].itemState);\n          distributorID = items[_upc].distributorID;\n          retailerID = items[_upc].retailerID;\n          consumerID = items[_upc].consumerID;\n\n        return (\n            itemSKU,\n            itemUPC,\n            productID,\n            productNotes,\n            productPrice,\n            itemState,\n            distributorID,\n            retailerID,\n            consumerID\n        );\n    }\n}\n",
  "sourcePath": "/Users/berk.mollamustafaoglu/Documents/code/blockchain-nanodegree/nd1309-Project-6b-Example-Template/project-6/contracts/coffeebase/SupplyChain.sol",
  "compiler": {
    "name": "solc",
    "version": "0.8.14+commit.80d49f37.Emscripten.clang"
  },
  "schemaVersion": "3.4.7",
  "updatedAt": "2022-05-30T22:59:36.965Z",
  "devdoc": {
    "kind": "dev",
    "methods": {},
    "version": 1
  },
  "userdoc": {
    "kind": "user",
    "methods": {},
    "version": 1
  }
}